:1000000099C2B5C2B4C2E3C5B2C2B1C213C6AFC2CF
:10001000AEC2ADC2ACC2ABC2AAC2A9C2A8C2A7C27C
:10002000A6C2A5C2A4C2A3C2A2C24FC7A0C29FC2F9
:100030009EC29DC207001C36637F630070001C36A1
:10004000637F63001C36003E637F63006E3B003EAF
:10005000637F6300631C36637F6363000C0C001EC8
:10006000333F33007C36337F333373001E33033327
:100070001E18301E07003F061E063F0038003F06D0
:100080001E063F000C123F061E063F0036003F06CC
:100090001E063F0007001E0C0C0C1E0038001E0C34
:1000A0000C0C1E000C12001E0C0C1E0033001E0C4B
:1000B0000C0C1E003F666F6F66663F003F003337D3
:1000C0003F3B33000E00183C663C18007000183CA3
:1000D000663C18003C66183C663C18006E3B003ECF
:1000E00063633E00C3183C66663C180000361C087B
:1000F0001C3600005C36737B6F361D000E00666692
:1001000066663C007000666666663C003C6600669B
:1001100066663C003300333333331E00700066667E
:100120003C1818000F063E66663E060F001E331F81
:10013000331F030307001E303E337E0038001E309D
:100140003E337E007EC33C607C66FC006E3B1E300E
:100150003E337E0033001E303E337E000C0C1E30DA
:100160003E337E000000FE30FE33FE0000001E0322
:10017000031E301C07001E333F031E0038001E33D1
:100180003F031E007EC33C667E063C0033001E33E8
:100190003F031E0007000E0C0C0C1E001C000E0C72
:1001A0000C0C1E003E631C1818183C0033000E0C8B
:1001B0000C0C1E001B0E1B303E331E00001F001FC8
:1001C000333333000007001E33331E000038001E97
:1001D00033331E001E33001E33331E006E3B001EE1
:1001E00033331E000033001E33331E001818007E08
:1001F0000018180000603C767E6E3C060007003355
:1002000033337E000038003333337E001E33003337
:1002100033337E000033003333337E000038003345
:10022000333E301F0000063E663E060000330033BA
:10023000333E301F0000000000000000183C3C1856
:1002400018001800363600000000000036367F36F1
:100250007F3636000C3E031E301F0C00006333183F
:100260000C6663001C361C6E3B336E0006060300F2
:1002700000000000180C0606060C1800060C1818E2
:10028000180C060000663CFF3C660000000C0C3FAA
:100290000C0C000000000000000C0C060000003FE9
:1002A0000000000000000000000C0C006030180C82
:1002B000060301003E63737B6F673E000C0E0C0C5F
:1002C0000C0C3F001E33301C06333F001E33301C25
:1002D00030331E00383C36337F3078003F031F3008
:1002E00030331E001C06031F33331E003F3330180B
:1002F0000C0C0C001E33331E33331E001E33333EF2
:1003000030180E00000C0C00000C0C00000C0C004F
:10031000000C0C06180C0603060C180000003F0029
:10032000003F0000060C1830180C06001E33301871
:100330000C000C003E637B7B7B031E000C1E3333E2
:100340003F3333003F66663E66663F003C6603030C
:1003500003663C001F36666666361F007F46161E23
:1003600016467F007F46161E16060F003C660303E6
:1003700073667C003333333F333333001E0C0C0C75
:100380000C0C1E007830303033331E006766361E8A
:10039000366667000F06060646667F0063777F7F36
:1003A0006B63630063676F7B736363001C36636317
:1003B00063361C003F66663E06060F001E3333336D
:1003C0003B1E38003F66663E366667001E33070EEA
:1003D00038331E003F2D0C0C0C0C1E00333333330E
:1003E00033333F0033333333331E0C006363636BAB
:1003F0007F7763006363361C1C3663003333331E20
:100400000C0C1E007F6331184C667F001E0606062A
:1004100006061E0003060C18306040001E1818184F
:1004200018181E00081C36630000000000000000C1
:10043000000000FF0C0C18000000000000001E303F
:100440003E336E000706063E66663B0000001E3324
:1004500003331E003830303E33336E0000001E334D
:100460003F031E001C36060F06060F0000006E3309
:10047000333E301F0706366E666667000C000E0CB2
:100480000C0C1E00300030303033331E0706663649
:100490001E3667000E0C0C0C0C0C1E000000337F87
:1004A0007F6B630000001F333333330000001E33C3
:1004B00033331E0000003B66663E060F00006E33BD
:1004C000333E307800003B6E66060F0000003E03AE
:1004D0001E301F00080C3E0C0C2C1800000033339B
:1004E00033336E0000003333331E0C000000636BA7
:1004F0007F7F3600000063361C3663000000333314
:10050000333E301F00003F190C263F00380C0C070B
:100510000C0C38001818180018181800070C0C38A4
:100520000C0C07006E3B0000000000000000000003
:100530000000000011241FBECFEFCDBFDFE3DEBF00
:100540001EE3A0E0BEE3E6EFFFE002C005900D92DF
:10055000A830B107D9F72EE3A8E0BEE301C01D9291
:10056000AA31B207E1F70E94BB060C94F9070C947C
:1005700000000E94FB060895E3E1FEE382E190E0C3
:100580008583968383E0848383E183838CE0828305
:1005900084E28183108208958091133E8E5F8C33B4
:1005A00018F48093133E0895E3E1FEE31082818105
:1005B0008F5F8C3319F08093143E0895E3E1FEE3DE
:1005C000118282818F5F883119F08093153E0895E2
:1005D000E3E1FEE3128283818F5F8383803231F413
:1005E00084818F5F848381E083832AC08F3179F493
:1005F0008091173E982F9D7F943011F0993001F52E
:10060000E3E1FEE38F5F848381E0838319C08E3151
:1006100059F48091173E823099F4E3E1FEE383E0E0
:10062000848381E083830CC08D3151F48091173E27
:10063000823031F4E3E1FEE383E0848381E083836D
:100640008091173E8D3049F4E3E1FEE381E084833D
:1006500085819681019685839683089590E2909393
:10066000460490E00E945507089590E29093450457
:1006700090E00E94550708952F923F924F925F920B
:100680006F927F928F929F92AF92BF92CF92DF92A2
:10069000EF92FF920F931F93CF93DF938A30D1F4A1
:1006A0008091083E9091093E892B51F480E20E948E
:1006B0003C038091083E9091093E892B09F4BFC10B
:1006C00080E20E943C038091083E9091093E892B74
:1006D000B9F7B5C18930F1F48091083E9091093E97
:1006E00083709078992324F401978C6F9F6F019603
:1006F00003E010E0081B190B101611060CF09FC147
:10070000C0E0D0E080E20E943C032196C017D107F0
:10071000C9F795C1803208F492C18F3708F0B3C091
:10072000C82FD0E0A097CC0FDD1FCC0FDD1FCC0F62
:10073000DD1FFE01EC5CFD4FA490FE01EB5CFD4F64
:10074000C490FE01EA5CFD4FE490FE01E95CFD4FC0
:100750000491FE01E85CFD4F8490FE01E75CFD4FD3
:100760006490FE01E65CFD4F4490FE01E55CFD4FA8
:10077000C491212C312CD0E0B12CD12CF12C10E0E3
:10078000912C712C512CDE01022C02C0B595A7953D
:100790000A94E2F7B695BA2FAA27B795A795A501AF
:1007A000022C02C0559547950A94E2F741704A2BF6
:1007B000F601022C02C0F595E7950A94E2F7E17084
:1007C000FF27EE0FFF1F4E2BB701022C02C07595BD
:1007D00067950A94E2F761707727660F771F660FB7
:1007E000771F462BC801022C02C0959587950A9465
:1007F000E2F781709927880F991F880F991F880F3A
:10080000991F242F282BA401022C02C0559547952F
:100810000A94E2F74170552742955295507F54272C
:10082000407F5427422B9301022C02C03595279517
:100830000A94E2F721703327220F331F2295329555
:10084000307F3227207F3227242BC201022C02C0A6
:10085000959587950A94E2F78170992700249695DB
:1008600087950794969587950794982F802D822BCE
:100870000E9435038FEF281A380A88E028163104C1
:1008800009F081CFB8C0803A08F4D9C0813C08F49F
:10089000B2C090E0805C9109880F991F880F991F62
:1008A000880F991FFC01EC5CFF4FA490FC01EB5CEE
:1008B000FF4FC490FC01EA5CFF4FE490FC01E95C4F
:1008C000FF4F0491FC01E85CFF4F8490FC01E75C62
:1008D000FF4F6490FC01E65CFF4F4490FC01E55C37
:1008E000FF4F8491212C312CC82FD0E0B12CD12C7A
:1008F000F12C10E0912C712C512CAE01022C02C075
:10090000559547950A94E2F75695542F44275795E5
:100910004795C501022C02C0959587950A94E2F788
:100920008170842B9601022C02C0359527950A947C
:10093000E2F721703327220F331F282BC701022C27
:1009400002C0959587950A94E2F781709927880FE0
:10095000991F880F991F822B9801022C02C0359590
:1009600027950A94E2F721703327220F331F220FB5
:10097000331F220F331F282BC401022C02C0959570
:1009800087950A94E2F78170992782959295907FD6
:100990009827807F9827822B9301022C02C03595DF
:1009A00027950A94E2F721703327220F331F2295EF
:1009B0003295307F3227207F3227282BC201022C2C
:1009C00002C0959587950A94E2F7817099270024D3
:1009D000969587950794969587950794982F802DDF
:1009E000822B0E9435038FEF281A380A88E02816D8
:1009F000310409F082CF8091083E9091093E019622
:100A00008F709078992324F40197806F9F6F0196DF
:100A10008093083E9093093E892B89F480910A3E89
:100A200090910B3E019683709078992324F401975E
:100A30008C6F9F6F019680930A3E90930B3EDF91DF
:100A4000CF911F910F91FF90EF90DF90CF90BF90CB
:100A5000AF909F908F907F906F905F904F903F905E
:100A60002F900895CF93DF93EC018881882331F094
:100A700021960E943C0389918111FBCFDF91CF9198
:100A80000895CF93DF9380910A3E90910B3E892B7E
:100A900051F480E09EE30E94320580910A3E9091DD
:100AA0000B3E892B89F080E09EE30E943205809105
:100AB0000A3E90910B3E892BB1F706C080E20E945E
:100AC0003C032197D9F703C0C0E4D0E0F7CFDF9112
:100AD000CF910895E0E2F4E080E28683A1E4B3E000
:100AE0001197F1F70000858381E493E00197F1F716
:100AF000000008950F931F93CF93C0E2C093210489
:100B000000E414E0F801C1830E943B07F801C583AB
:100B10000E946A058EEA0E942E0385ED0E942E0334
:100B200080EF0E942E0388EA0E942E0380E20E943A
:100B30002E0383ED0E942E0380E00E942E038DE899
:100B40000E942E0384E10E942E0380E20E942E0365
:100B500080E00E942E0381EA0E942E0385EA0E9413
:100B60002E0388EC0E942E038FE70E942E0382E260
:100B70000E942E0380E00E942E0383E00E942E0339
:100B80008AED0E942E0382E00E942E0381E80E94DB
:100B90002E038FEF0E942E0389ED0E942E0381E128
:100BA0000E942E038BED0E942E0380E20E942E03F2
:100BB00086EA0E942E0384EA0E942E038FEA0E9496
:100BC0002E030E944105CF911F910F9108951F920E
:100BD0000F920FB60F9211242F933F934F935F9371
:100BE0006F937F938F939F93AF93BF93EF93FF93F5
:100BF0008091080485FD0DC0E0E5F0E080818E7FE6
:100C000080830E94410580E18093270480E28093E5
:100C10000904FF91EF91BF91AF919F918F917F91C7
:100C20006F915F914F913F912F910F900FBE0F9059
:100C30001F9018951F920F920FB60F9211240F93C9
:100C40001F932F933F934F935F936F937F938F9354
:100C50009F93AF93BF93EF93FF93CF93DF93CDB762
:100C6000DEB7C056D109CDBFDEBF0E94CC0203E182
:100C70001EE3F80180814AE0BE016F5F7F4F90E084
:100C80000E94C407F80181814AE0BE016F5E7F4F78
:100C900090E00E94C407F80182814AE0BE016F5DC6
:100CA0007F4F90E00E94C407F80183814AE0BE01B3
:100CB0006F5C7F4F90E00E94C407F80184814AE096
:100CC000BE016F5B7F4F90E00E94C4074AE0BE0107
:100CD0006F5A7F4FF801858196810E94C4070E9458
:100CE0004105CE0181960E94320582E09EE30E947A
:100CF0003205CE0141960E94320582E09EE30E94B9
:100D00003205CE0101960E94320584E09EE30E94E6
:100D10003205CE01C1960E94320586E09EE30E9414
:100D20003205CE018F5B9F4F0E94320586E09EE325
:100D30000E943205CE018F5A9F4F0E94320581E0FA
:100D400080934301C05ADF4FCDBFDEBFDF91CF910B
:100D5000FF91EF91BF91AF919F918F917F916F9193
:100D60005F914F913F912F911F910F910F900FBE67
:100D70000F901F9018950E94B9020E947A050E9458
:100D8000BC02E0E5F0E08081897F82608083808121
:100D900081608083808181608083889580818E7F5F
:100DA0008083F5CF80E0089542E068ED88E790E029
:100DB0000E94200780E00895789480E00895E0E1A3
:100DC000F4E0808188608193E83184E0F807C9F716
:100DD000E0E3F4E0808188608193E83384E0F80701
:100DE000C9F7E0E5F4E0808188608193E83584E02C
:100DF000F807C9F708950E94DF060598E5E1F4E0D9
:100E00008081886080830698E6E1F4E080818860D4
:100E100080830798E7E1F4E0808188608083209AEE
:100E20002898219A2998249A2C980E94D4060E94E6
:100E300024070E94DC060E9436070E94D20608950D
:100E4000FC0164BF40830895E0E4F1E081818111F9
:100E5000FDCFE0E4F1E081E8808380E09AEF8287D3
:100E60009387178281E0828380E0089583E08093F6
:100E7000500080E00895E0E0F2E0818184608183A9
:100E8000E0E4F4E0808185608083E0E0F4E080814C
:100E90008860808388E08583E0E2F8E08081816279
:100EA0008083818184608183089598E09093060413
:100EB00080932408E0E2F8E083818823ECF78091B6
:100EC000240888E08093050408951F920F920FB6BE
:100ED0000F9211242F933F934F935F936F937F93C0
:100EE0008F939F93AF93BF93CF93DF93EF93FF9332
:100EF000E0E2F8E0948180E883838091103E8230C4
:100F000039F1ACE0BEE31196ED91FC91129790831C
:100F1000EF0131961196ED93FC931297813011F009
:100F2000998101C090E0ECE0FEE3838181508383EE
:100F3000882319F09093240814C0ECE0FEE383E0CA
:100F400080830580F681E02D309759F0099509C01E
:100F5000ECE0FEE3C181D281CE01019681839283D0
:100F6000DFCFFF91EF91DF91CF91BF91AF919F9133
:100F70008F917F916F915F914F913F912F910F9042
:100F80000FBE0F901F901895BB274A3031F499235C
:100F900022F4BDE2909581959F4F0C94D007BB271A
:100FA000FB015527AA27880F991FAA1FA41710F025
:100FB000A41B83955051B9F7A05DAA3308F0A95D31
:100FC000A193009779F7B111B1931192CB010C94D1
:100FD000E907DC01FC01672F71917723E1F7329774
:100FE00004C07C916D9370836291AE17BF07C8F304
:060FF0000895F894FFCF04
:080FF6000A003A0020002D0062
:00000001FF
